:100000000C943E000C9448000C9448000C9448005A
:100010000C9448000C9448000C9448000C94480040
:100020000C9448000C9448000C9448000C94480030
:100030000C9448000C9448000C9448000C94480020
:100040000C9448000C9448000C9448000C94480010
:100050000C9448000C9448000C9448000C94480000
:100060000C9448000C9448000C9448000C944800F0
:100070000C9448000C9448000C94480011241FBEB6
:10008000CFEFD8E0DEBFCDBF0E944A000C94E7005E
:100090000C9400008FEF84B981E09FEF28E730E0F7
:1000A00085B9E5E3F2E83197F1F700002150310915
:1000B000B9F728E730E095B9EDE8F0E23197F1F7CC
:1000C000000085B9E7EAF1E63197F1F700C00000DA
:1000D0002150310981F728E730E095B9EAE1F1E4F0
:1000E0003197F1F700C085B9EAE1F1E43197F1F712
:1000F00000C02150310989F728E730E095B9E7EAD7
:10010000F1E63197F1F700C0000085B9EDE8F0E2C3
:100110003197F1F700002150310981F728E730E0ED
:1001200095B9E5E3F2E83197F1F700002150310984
:10013000B9F720E233E085B9E7E8F3E13197F1F769
:1001400000C0000021503109B1F720E233E095B939
:10015000E1EEF4E03197F1F700C0000085B9E6EA7E
:10016000FEE03197F1F72150310989F720E233E0C1
:1001700095B9E3ECF9E03197F1F700C0000085B9DB
:10018000E3ECF9E03197F1F700C0000021503109AC
:1001900079F720E233E095B9E6EAFEE03197F1F72E
:1001A00085B9E1EEF4E03197F1F700C0000021508D
:1001B000310989F720E233E095B9E7E8F3E13197B7
:1001C000F1F700C0000021503109B1F767CFF89472
:0201D000FFCF5F
:00000001FF
