:100000000C943E000C9448000C9448000C9448005A
:100010000C9448000C9448000C9448000C94480040
:100020000C9448000C9448000C9448000C94480030
:100030000C9448000C9448000C9448000C94480020
:100040000C9448000C9448000C9448000C94480010
:100050000C9448000C9448000C9448000C94480000
:100060000C9448000C9448000C9448000C944800F0
:100070000C9448000C9448000C94480011241FBEB6
:10008000CFEFD8E0DEBFCDBF0E944A000C94D10074
:100090000C9400008FEF84B982E085B990E080E095
:1000A00031E04FEF22E0923029F1B8F5992309F4BD
:1000B00050C0913089F0F7CF8FE19EE40197F1F7BE
:1000C00000C000004A9B45C0EFE1FEE43197F1F724
:1000D00000C0000091E081E055B15130F1F525B943
:1000E000EFE1F3E03197F1F700C000004A993EC01C
:1000F000882391F335B94A9BFDCF8FE19EE40197A8
:10010000F1F700C000004A9BF5CFEFE1FEE4319724
:10011000F1F700C0000093E081E025B94A992FC0B3
:10012000882309F245B94A9BFDCF8FE19EE40197F0
:10013000F1F700C000004A9BF5CFEFE1FEE43197F4
:10014000F1F700C0000081E035B94A9921C0882349
:10015000D9F325B94A9BFDCFAFCF55B1523031F617
:1001600095B9EFEAF4E03197F1F7BECFEFE1FEE4A5
:100170003197F1F700C000004A9BAECFACCFEFE162
:10018000FEE43197F1F700C000004A9B8CCFBDCF51
:10019000EFE1FEE43197F1F700C000004A9BD4CFB5
:0601A000CCCFF894FFCF64
:00000001FF
