:100000000C9481000C94A9000C94A9000C94A900F4
:100010000C94A9000C94A9000C94A9000C94A900BC
:100020000C94A9000C94A9000C94A9000C94A900AC
:100030000C94A9000C94A9000C94A9000C94A9009C
:100040000C94A9000C94A9000C94A9000C94A9008C
:100050000C94A9000C94A9000C94A9000C94A9007C
:100060000C94A9000C94A9000C94A9000C94A9006C
:100070000C94A9000C94A9000C94A90007634236C3
:10008000B79BD8A71A39685618AEBAAB558C1D3C29
:10009000B7CC5763BD6DEDFD753EF6177231BF00ED
:1000A0000000803F08000000BE922449123EABAA27
:1000B000AA2ABECDCCCC4C3E00000080BEABAAAA82
:1000C000AA3E00000000BF000000803F00000000CA
:1000D00000084178D3BB4387D1133D190E3CC3BD03
:1000E0004282AD2B3E68EC8276BED98FE1A93E4CB0
:1000F00080EFFFBE01C4FF7F3F0000000000770AD1
:10010000830A11241FBECFEFD8E0DEBFCDBF11E0C0
:10011000A0E0B1E0E4E9FCE102C005900D92A2305C
:10012000B107D9F711E0A2E0B1E001C01D92A531FD
:10013000B107E1F710E0C0E8D0E004C02197FE016C
:100140000E94370ECF37D107C9F70E94F7090C94E8
:100150003D0E0C94000022E424BD24E025BD8D97C3
:10016000BC0180E090E00E94230B20E030E040E4FE
:1001700051E40E948F0A9B01AC0160E070E080E0D6
:1001800090E40E94670C20E030E04CED52E40E94C5
:10019000040C9B01AC0160E074E284E796E40E94E9
:1001A0008F0A0E94F70A67BD089566E082E091E039
:1001B0000E94D0069695879596958795809309011C
:1001C000803518F48CE082B9089512B808958E3203
:1001D000910510F00C94AB0085B515BC089586B15F
:1001E00081708093140186B186958170809313018C
:1001F00086B182FB882780F98093120186B183FB48
:10020000882780F98093110186B18295817080934F
:100210001001089580911401882309F478C00E9488
:10022000EF0020911401909113018091120122237B
:1002300021F1992389F081114AC080911101811126
:1002400046C080911001811142C06FE570E083E0EB
:1002500091E00E9414093BC0811139C080911101C5
:10026000811135C080911001811131C06FE570E0BE
:1002700083E091E00E94B9092AC0992359F08111C5
:1002800009C080911101811112C08091100181116A
:100290000EC0DBCF882359F020911101222309F4ED
:1002A0009DC030911001332309F498C04CC09111C6
:1002B0000EC080911101811199C080911001882395
:1002C00031F06FE570E083E091E00E949D0980913C
:1002D000140181119FCF8091130181119BCF8091D7
:1002E0001201811197CF80911101811193CF8091DB
:1002F000100181118FCF2FEF80E792E021508040D5
:100300009040E1F700C000000E94EF0083CF809191
:100310001301811184CF80911201811180CF8091CE
:10032000110181117CCF80911001811178CF8091D2
:100330000A01833020F086E490E00E94AB008091B7
:100340000A018630A1F585B515BC10920D0184E037
:1003500091E00C943F0680911301811139C0809186
:100360001201811135C080911101811131C080913C
:10037000100181112DC00E94EF006FE570E083E055
:1003800091E00E94EE0880911401811115C08091C6
:100390001301811111C08091120181110DC0809152
:1003A0001101811109C080911001811105C0809156
:1003B0001401882381F20CC02FEF80E792E02150D6
:1003C00080409040E1F700C000000E94EF00EFCFB6
:1003D00080910A018F5F80930A011CCF911116C092
:1003E00080911001222349F0811171CF6FE570E0F7
:1003F00083E091E00E9456096ACF811168CF6FE5D2
:1004000070E083E091E00E94EE0861CF882309F458
:100410005ECF21115CCF15CFE0910B01F0E0EB5FD7
:10042000FE4F8081843609F05EC06FE570E083E0A6
:1004300091E00E949D092FEF84E39CE021508040D1
:100440009040E1F700C000006FE570E083E091E0CC
:100450000E94EE0880911301811113C00E94EF00E9
:10046000F9CF0E94EF008091140190911301811146
:100470000DC09923C1F06FE570E083E091E00E9428
:10048000EE0880911001882361F326C0809112014B
:10049000911114C08111EFCF6FE570E083E091E01E
:1004A0000E943509EECF80911201882381F06FE51B
:1004B00070E083E091E00E945609E3CF8111DBCF29
:1004C0006FE570E083E091E00E941409DACF80913B
:1004D0001101882381F2EBCF6FE570E083E091E0BA
:1004E0000E949D095DC0873609F072C06FE570E01B
:1004F00083E091E00E94B9092FEF86E191E121505C
:1005000080409040E1F700C000006FE570E083E0BC
:1005100091E00E94EE0880911101811117C00E94A4
:10052000EF00F9CF0E94EF0020911201909111018C
:100530008091100121110FC0992381F0811119C000
:100540006FE570E083E091E00E94EE088091140175
:10055000882341F31FC091110AC0F0CF882349F0CE
:100560006FE570E083E091E00E948009EFCF88237F
:10057000B9F330911301332319F32111E1CF911114
:10058000DFCF8111DDCF6FE570E083E091E00E9465
:100590003509DCCF6FE570E083E091E00E94B90996
:1005A0002FEF80E792E0215080409040E1F700C0BB
:1005B00000006FE570E083E091E00E94EE082FEF0D
:1005C00080E792E0215080409040E1F700C00000B9
:1005D00080910B018F5F80930B010895E0910B01D7
:1005E000F0E0EB5FFE4F8081843609F0A6C0809179
:1005F0001401882349F06FE570E083E091E00E94E8
:100600009D090E94EF00F3CF809113018111F3CF78
:10061000809112018111EFCF809111018111EBCFF7
:10062000809110018111E7CF6FE570E083E091E0E8
:100630000E94EE082FEF89E698E12150804090401B
:10064000E1F700C0000080911301811122C00E94D7
:10065000EF006FE570E083E091E00E941409F3CFB2
:1006600080911301882309F440C00E94EF0090910B
:10067000140180911301911111C08823E1F02091A0
:100680001201211118C06FE570E083E091E00E9433
:10069000EE0880911401882319F3E7CF81110BC074
:1006A00020911201211107C06FE570E083E091E015
:1006B0000E943509EECF20911101222339F06FE518
:1006C00070E083E091E00E949D09E3CF9111E1CFBA
:1006D0008111DFCF809112018823D9F26FE570E09C
:1006E00083E091E00E948009D4CF809112018111B2
:1006F000BCCF809111018111B8CF8091100181117F
:10070000B4CF6FE570E083E091E00E94EE082FEF38
:1007100084E39CE0215080409040E1F700C000005D
:100720008091120181110BC00E94EF006FE570E013
:1007300083E091E00E941409F3CF8736C1F08091E5
:100740000B018F5F80930B0181E080930D0184E0AA
:1007500091E00C943F0680911301882369F06FE5C6
:1007600070E083E091E00E94B9090E94EF0080915F
:100770001401882381F3F3CF809112018111EFCF0F
:10078000809111018111EBCF809110018111E7CF90
:100790006FE570E083E091E00E94EE082FEF89E6BC
:1007A00098E1215080409040E1F700C00000809126
:1007B0001101811122C00E94EF006FE570E083E01B
:1007C00091E00E945609F3CF80911301882309F428
:1007D00040C00E94EF00909112018091110191118F
:1007E00011C08823E1F020911001211118C06FE59C
:1007F00070E083E091E00E94EE088091140188236C
:1008000019F3E7CF81110BC020911001211107C00E
:100810006FE570E083E091E00E941409EECF209133
:100820001301222339F06FE570E083E091E00E942C
:10083000B909E3CF9111E1CF8111DFCF8091100190
:100840008823D9F26FE570E083E091E00E945609B9
:10085000D4CF809112018111BCCF809111018111FF
:10086000B8CF809110018111B4CF6FE570E083E0C3
:1008700091E00E94EE082FEF84E39CE0215080403D
:100880009040E1F700C0000080911201811157CF24
:100890000E94EF006FE570E083E091E00E9456094E
:1008A000F3CF209114019091130180911201222322
:1008B00009F458C09923B9F1882309F4AEC1809195
:1008C0001101882309F4A9C180911001882309F43A
:1008D000A4C180910B018330B0F060E070E083E050
:1008E00091E00E94EE0881E080930C0108958091D0
:1008F00010018823A9F00E94EF006FE570E083E00B
:1009000091E00E94EE08809114018111F0CF809156
:100910001301811105C080911201882309F4BBC025
:100920006FE570E01BC0811178C1809111018111C8
:1009300074C180911001811170C16FE570E083E096
:1009400091E00E94B9092FE788E391E021508040AF
:100950009040E1F700C0000068EC70E083E091E0B7
:100960000C94EE08992381F081110EC08091110141
:100970008111A7C0809110018111A3C06FE570E0C3
:1009800083E091E00C941409882309F49AC0209123
:100990001101222309F4A6C030911001332309F478
:1009A000A1C06FE570E083E091E00E94EE082FE7C0
:1009B00081E397E1215080409040E1F700C00000C2
:1009C0000E94EF0080911401811110C080911301E9
:1009D00081110CC080911201811108C08091110118
:1009E000811104C0809110018823A1F18091080138
:1009F0008F5F80930801833009F00FC16FE570E0CD
:100A000083E091E00E949D092FEF89E698E1215053
:100A100080409040E1F700C000000E94EF0080910C
:100A20001201811107C06FE570E083E091E00E9440
:100A30009D09F3CF68EC70E083E091E00E94EE083E
:100A40002FE788E391E0215080409040E1F700C01B
:100A5000000008951092080180911201811109C0CF
:100A60006FE570E083E091E00E949D090E94EF0035
:100A7000F3CF68EC70E083E091E00E94EE082FE78E
:100A800088E391E0215080409040E1F700C00000F1
:100A900010920A01089580911101811141CF809136
:100AA000100181113DCF80911201811109C00E9476
:100AB000EF006FE570E083E091E00E949D09F3CFC5
:100AC00008959111AAC080911101811110C08091E7
:100AD00010018823B1F06FE570E083E091E00E949F
:100AE0009D0931CF91116DC0222309F465C0809119
:100AF0001001811192C06FE570E083E091E00C94E9
:100B000056092FEF81EE94E0215080409040E1F7AC
:100B100000C000000E94EF008091140181117DC08F
:100B200080911301811179C080911201811175C0EA
:100B300080911101811171C08091100181116DC0EE
:100B40006FE570E083E091E00E94EE082FEF84E310
:100B50009CE0215080409040E1F700C000000E94DE
:100B6000EF000E94D500909114018091090191112C
:100B700014C090911301911110C090911201911124
:100B80000CC090911101911108C090911001911128
:100B900004C0813510F00C940C028135F0F1809185
:100BA0000D018823D1F180910A018F5F80930A01A2
:100BB000823099F50C940A018091100181112DC0A9
:100BC000AFCE882351F180911001211103C0811112
:100BD00024C0D4CE811121C02FE788E391E02150B9
:100BE00080409040E1F700C000000E94EF0080913B
:100BF0001401811112C080911301882371F080913A
:100C00001201882351F080911101882331F08091E5
:100C10001001811102C00C94EE02089512B80895DB
:100C2000089581E082B98FEC97E00197F1F700C059
:100C3000000080E0861719F012B88F5FFBCF08958F
:100C400082E082B98FEC97E00197F1F700C00000D5
:100C500080E0861719F012B88F5FFBCF08958FEFF1
:100C600092E092B98150E9F784E191E092B9815024
:100C7000E9F7861719F012B88F5FFBCF089512B805
:100C800008958FEF87B90895089518B88FEF9CE7FE
:100C90000197F1F700C00000089518B887EA91E6BF
:100CA0000197F1F700C0000083E088B98FE39FE16E
:100CB0000197F1F700C00000089518B88FE79EE390
:100CC0000197F1F700C0000083E088B98FE79EE349
:100CD0000197F1F700C00000089518B88FE39FE175
:100CE0000197F1F700C0000083E088B987EA91E638
:100CF0000197F1F700C00000089583E088B98FEFF5
:100D00009CE70197F1F700C00000089518B887E844
:100D100093E10197F1F700C00000089518B885EA43
:100D20009EE00197F1F700C0000083E088B981EEF2
:100D300094E00197F1F700C00000089518B889EC1D
:100D400098E00197F1F700C0000083E088B989ECD2
:100D500098E00197F1F700C00000089518B881EEFF
:100D600094E00197F1F700C0000083E088B985EABC
:100D70009EE00197F1F700C00000089583E088B974
:100D800087E893E10197F1F700C000000895109201
:100D90007C0086E880937A00089510927A00089586
:100DA00080917C00807E80937C0080917C006770C5
:100DB000682B60937C0080917A00806480937A0035
:100DC00080917A0084FFFCCF80917A0080618093CB
:100DD0007A00209178008091790090E0982F882700
:100DE000820F911D089523E024B921E02BB915B895
:100DF000FC0113821082E89AE9E6F0E080818160CC
:100E0000808378940895FC011082109285001092DE
:100E10008400709389006093880088E0809380004C
:100E200085E0809381001092820082E080936F00C1
:100E30000895FC01728361830895FC018181928190
:100E40000895FC01908181E0913009F080E00895DF
:100E5000FC0160830895089580EA80930001109258
:100E6000B90080E28093B800089520E8FC01208357
:100E70000C942C07982F9370891305C0880F806AF3
:100E80008093000108958FEF089594EA24E89093E9
:100E9000BC008091BC0087FFFCCF80910001809353
:100EA000BB002093BC008091BC0087FFFCCF8091E9
:100EB000B900883161F784EA8093BC008091BC005E
:100EC00087FFFCCF809100018093BB0084E8809372
:100ED000BC008091BC0087FFFCCF7093BB0084E80E
:100EE0008093BC008091BC0087FFFCCF6093BB0067
:100EF00084E88093BC008091BC0087FFFCCF809188
:100F0000BC0087FFFCCF84EA8093BC008091BC00CA
:100F100087FFFCCF809100018F5F8093BB0084E846
:100F20008093BC008091BC0087FFFCCF84E8809355
:100F3000BC008091BC0087FFFCCF8091BB00FA0110
:100F4000808384E98093BC0080E0089594EA34E8CB
:100F50009093BC008091BC0087FFFCCF8091000182
:100F60008093BB003093BC008091BC0087FFFCCF16
:100F70008091B900883161F784EA8093BC00809148
:100F8000BC0087FFFCCF809100018093BB0084E808
:100F90008093BC008091BC0087FFFCCF7093BB00A6
:100FA00084E88093BC008091BC0087FFFCCF6093F5
:100FB000BB0084E88093BC008091BC0087FFFCCF1D
:100FC00084EA8093BC008091BC0087FFFCCF8091B5
:100FD00000018F5F8093BB0084E88093BC00809108
:100FE000BC0087FFFCCFFA0184EC222371F0213092
:100FF00009F484E88093BC009091BC0097FFFCCF7B
:101000009091BB0091932150F0CF84E98093BC0074
:1010100080E0089594EA24E89093BC008091BC009D
:1010200087FFFCCF809100018093BB002093BC0020
:101030008091BC0087FFFCCF8091B900883161F7B7
:1010400084EA8093BC008091BC0087FFFCCF809134
:1010500000018093BB0084E88093BC008091BC00B9
:1010600087FFFCCF7093BB0084E88093BC00809125
:10107000BC0087FFFCCF6093BB0084E88093BC007A
:101080008091BC0087FFFCCF4093BB0084E8809335
:10109000BC008091BC0087FFFCCF84E98093BC003A
:1010A00080E00895FB01E20FF11DDC012C9130E09E
:1010B00021503109262B372BE217F30710F0F901E5
:1010C00031968E2F861B24EA34E82093BC00909141
:1010D000BC0097FFFCCF909100019093BB00309330
:1010E000BC009091BC0097FFFCCF9091B900983163
:1010F00061F794EA9093BC009091BC0097FFFCCFFD
:10110000909100019093BB0094E89093BC00909163
:10111000BC0097FFFCCF7093BB0094E89093BC0099
:101120009091BC0097FFFCCF6093BB0094E8909334
:10113000BC009091BC0097FFFCCFFA01982F24E8E7
:10114000992359F031913093BB002093BC0030912A
:10115000BC0037FFFCCF9150F3CF94E99093BC00D3
:101160000895CF92DF92EF92FF921F93CF93DF9378
:101170006C017A01122FEB01212FA701BE01C601DC
:101180000E945208282F30E0C20FD31F181BE20E16
:10119000F31E1111F1CF80E0DF91CF911F91FF90ED
:1011A000EF90DF90CF900895E0E8F0E08081816AD1
:1011B0008083109285001092840010928900109212
:1011C000880010928B0010928A00E1E8F0E08081A4
:1011D000826080831092820008950895CF93DF93F8
:1011E000EB011BB880E090E00E94230B26E636E678
:1011F00046E85FE30E94040C0E94F70A709389009E
:1012000060938800D0938B00C0938A00DF91CF91C8
:10121000089580EC8BB970938B0060938A00709373
:101220008900609388000895CF93DF93EB011BB88A
:1012300080E090E00E94230B26E636E646E85FE376
:101240000E94040C20E030E040EC5FE30E948F0A33
:101250000E94F70A7093890060938800D0938B00F6
:10126000C0938A00DF91CF910895CF93DF93EB0174
:101270001BB880E090E00E94230B26E636E646E8A5
:101280005FE30E94040C20E030E040E05FE30E9456
:10129000040C0E94F70A7093890060938800D09331
:1012A0008B00C0938A00DF91CF910895CF92DF9297
:1012B000EF92FF921BB880E090E00E94230B6B013D
:1012C0007C0126E636E646E85FE30E94040C0E94B5
:1012D000F70A709389006093880020E030E040ECCA
:1012E0005FE3C701B6010E948F0A0E94F70A70935C
:1012F0008B0060938A00FF90EF90DF90CF9008956D
:10130000CF93DF93EB011BB880E090E00E94230BAA
:1013100026E636E646E85FE30E94040C0E94F70AE0
:101320007093890060938800D695C795D0938B0001
:10133000C0938A00DF91CF910895CF93DF93EB01A3
:1013400080E48BB980E090E00E94230B26E636E62D
:1013500046E85FE30E94040C0E94F70A709389003C
:1013600060938800D0938B00C0938A00DF91CF9167
:101370000895CF93DF93EB0180E88BB980E090E094
:101380000E94230B26E636E646E85FE30E94040C43
:101390000E94F70A7093890060938800D0938B00B5
:1013A000C0938A00DF91CF9108950895089582E453
:1013B00084BD84E085BD84E687BD08952FEF269F18
:1013C000C001279F900D1124835D9C4264E270E070
:1013D0000E94230E80E090E00E94230B0E94600B8D
:1013E0000E94F70A67BD089585B515BC08958CEF76
:1013F00084B980EF8AB917B88FE081B924E637E65F
:1014000091E044E058E080910B01833008F043C044
:1014100018990CC0EFE1FEE43197F1F700C000002D
:101420001899F1CF90930E0152B90DC0199912C0BD
:10143000EFE1FEE43197F1F700C000001999E3CF26
:1014400090930F0142B9EFE1FEE43197F1F700C04C
:101450000000D9CF80910E01882359F010920E011F
:1014600012B880910B01E82FF0E0EB5FFE4F308364
:101470000EC080910F01882331F210920F0112B833
:1014800080910B01E82FF0E0EB5FFE4F20838F5F30
:1014900080930B01B8CF10920B016DEC70E083E0EC
:1014A00091E00E94EE08FFEF21EE84E0F150204031
:1014B0008040E1F700C0000080910C01811107C05D
:1014C0000E94D5000E94EF000E945104F5CF60E019
:1014D00070E083E091E00E94EE0860E084E091E03B
:1014E0000E94200685B515BC80E090E0089584E058
:1014F00091E00E940E0683E091E00E94D40882E011
:1015000091E00C94C70682E091E00E94CD0683E052
:1015100091E00E94ED0884E091E00C9410060CD05C
:1015200022C11AD140F011D130F021F45F3F19F0FF
:10153000DAC0511163C106C127D198F39923C9F3C9
:101540005523B1F3951B550BBB27AA2762177307C9
:10155000840738F09F5F5F4F220F331F441FAA1F7D
:10156000A9F333D00E2E3AF0E0E830D0915050403D
:10157000E695001CCAF729D0FE2F27D0660F771FEB
:10158000881FBB1F261737074807AB07B0E809F0CD
:10159000BB0B802DBF01FF2793585F4F2AF09E3F62
:1015A000510568F0A0C02AC15F3FECF3983EDCF320
:1015B000869577956795B795F7959F5FC9F7880FDB
:1015C000911D9695879597F90895E1E0660F771F2D
:1015D000881FBB1F621773078407BA0720F0621BBE
:1015E000730B840BBA0BEE1F88F7E0950895D4D0E7
:1015F00088F09F5790F0B92F9927B751A0F0D1F0FC
:10160000660F771F881F991F1AF0BA95C9F712C085
:10161000B13081F0F2D0B1E00895EFC0672F782F9C
:101620008827B85F39F0B93FCCF3869577956795F1
:10163000B395D9F73EF490958095709561957F4F5D
:101640008F4F9F4F0895E89409C097FB3EF4909503
:101650008095709561957F4F8F4F9F4F9923A9F08B
:10166000F92F96E9BB279395F6958795779567951A
:10167000B795F111F8CFFAF4BB0F11F460FF1BC05E
:101680006F5F7F4F8F4F9F4F16C0882311F096E9F1
:1016900011C0772321F09EE8872F762F05C066239F
:1016A00071F096E8862F70E060E02AF09A95660F58
:1016B000771F881FDAF7880F9695879597F9089511
:1016C00085D080F09F3740F491110EF097C060E014
:1016D00070E080E89FEB089526F41B16611D711DD4
:1016E000811D07C021C097F99F6780E870E060E026
:1016F0000895882371F4772321F09850872B762F53
:1017000007C0662311F499270DC09051862B70E015
:1017100060E02AF09A95660F771F881FDAF7880F26
:101720009695879597F908959F3F31F0915020F451
:10173000879577956795B795880F911D96958795AD
:1017400097F908959FEF80EC089500240A941616E7
:10175000170618060906089500240A94121613069F
:10176000140605060895092E0394000C11F488232D
:1017700052F0BB0F40F4BF2B11F460FF04C06F5F49
:101780007F4F8F4F9F4F089557FD9058440F551F1F
:1017900059F05F3F71F04795880F97FB991F61F0F3
:1017A0009F3F79F087950895121613061406551F6A
:1017B000F2CF4695F1DF08C0161617061806991FD6
:1017C000F1CF86957105610508940895E5DFA0F0D5
:1017D000BEE7B91788F4BB279F3860F41616B11D11
:1017E000672F782F8827985FF7CF8695779567952D
:1017F000B11D93959639C8F30895E894BB276627E1
:101800007727CB0197F908950BD0ADCF9EDF28F055
:10181000A3DF18F0952309F066CF94CF1124EECF03
:10182000B3DFA0F3959FD1F3950F50E0551F629F52
:10183000F001729FBB27F00DB11D639FAA27F00D29
:10184000B11DAA1F649F6627B00DA11D661F829F50
:101850002227B00DA11D621F739FB00DA11D621F35
:10186000839FA00D611D221F749F3327A00D611D52
:10187000231F849F600D211D822F762F6A2F112434
:101880009F5750408AF0E1F088234AF0EE0FFF1F87
:10189000BB1F661F771F881F91505040A9F79E3FBE
:1018A000510570F020CFAACF5F3FECF3983EDCF3F8
:1018B000869577956795B795F795E7959F5FC1F7FB
:1018C000FE2B880F911D9695879597F90895FA013B
:1018D000EE0FFF1F30962105310599F16115710555
:1018E00061F48038BFE39B0749F168949038810523
:1018F00061F08038BFEF9B0741F0992342F5FF3F2D
:10190000E1053105210511F1E8940894E795D90125
:10191000AA2329F4AB2FBE2FF85FD0F310C0FF5FCE
:1019200070F4A695E0F7F73950F019F0FF3A38F463
:101930009F779F930CD00F9007FC905808953EF02E
:1019400001CF60E070E080E89FE308954FE79F7764
:101950005F934F933F932F939ED02F913F914F9141
:101960005F9152DF05C019F40EF0BDCE46CFEACE2E
:1019700013DFC8F39638C0F707F80F92E8942BE30B
:101980003AEA48EB5FE74EDF0F920F920F924DB7A6
:101990005EB70F92C0D0ECE7F0E016D04F915F91A8
:1019A000EF91FF91E595EE1FFF1F49F0FE57E068AC
:1019B0004427EE0F441FFA95E1F74195550B32D0BD
:1019C0000F9007FE26C00895DF93CF931F930F93C8
:1019D000FF92EF92DF927B018C01689405C0DA2EB2
:1019E000EF011EDFFE01E894A59125913591459107
:1019F0005591AEF3EF01D4D0FE019701A801DA941E
:101A000079F7DF90EF90FF900F911F91CF91DF91C9
:101A100008959B01AC0160E070E080E89FE37FCD1A
:101A200062CE82CEB9DEE8F39923D9F3940F511D2B
:101A3000BBF39150504094F059F0882332F0660F78
:101A4000771F881F91505040C1F79E3F510544F7C2
:101A5000880F911D9695879597F908955F3FACF093
:101A6000983E9CF0BB27869577956795B79508F4C7
:101A7000B1609395C1F7BB0F58F711F460FFE8CF41
:101A80006F5F7F4F8F4F9F4FE3CFB8CE0EF04CCE9E
:101A900059CE689428CE80DEC8F39923D1F3C6F3DB
:101AA000DF93CF931F930F93FF92C92FDD278823D6
:101AB0002AF02197660F771F881FDAF720E030E0C1
:101AC00040E85FEB9FE3883920F0803E30F02196BC
:101AD0008F7755D0E4EAF0E003C051D0E1EDF0E0BB
:101AE00073DF8B01BE01EC01FB2E6F5771097595F9
:101AF000771F880B990BA9DD28E132E741E35FE30B
:101B00008FDEAF2D9801AE01FF900F911F91CF9105
:101B1000DF9146D028CEFA01DC01AA0FBB1F9B0142
:101B2000AC01BF5728F422273327442750781FC021
:101B3000B75188F4AB2F0024469537952795011CA3
:101B4000A395D2F3002069F0220F331F441FB395F1
:101B5000DAF30DD013C061307105A0E88A07B946E9
:101B600030F49B01AC016627772788279078309660
:101B700021F0208331834283538308955058BB273B
:101B8000AA270ED0F0CDE1DD30F0E6DD20F031F413
:101B90009F3F11F41EF4D6CD0EF4E095E7FBA3CDE4
:101BA000E92FF2DD80F3BA17620773078407950700
:101BB00018F071F49EF521CE0EF4E0950B2EBA2F9D
:101BC000A02D0B01B90190010C01CA01A001112443
:101BD000FF27591B99F0593F50F4503E68F11A16EF
:101BE000F040A22F232F342F4427585FF3CF469580
:101BF00037952795A795F0405395C9F77EF41F16A2
:101C0000BA0B620B730B840BBAF09150A1F0FF0F6B
:101C1000BB1F661F771F881FC2F70EC0BA0F621F57
:101C2000731F841F48F4879577956795B795F79547
:101C30009E3F08F0B3CF9395880F08F09927EE0FD9
:101C4000979587950895AA1BBB1B51E107C0AA1F52
:101C5000BB1FA617B70710F0A61BB70B881F991F4D
:101C60005A95A9F780959095BC01CD010895EE0F86
:101C7000FF1F0590F491E02D099410E0C0E8D0E03A
:101C800004C0FE010E94370E2196C138D107C9F762
:041C9000F894FFCFF6
:021C9400A000AE
:00000001FF
